:10025700554152542074657374A141A7DEB34EBD56
:10026700D7BEC2A1477777772E646F666C79652E04
:100277006E657420BDD0A662B56FB065B0CFBFE91B
:10028700A44AA5F4B74EB8EAB0540D0A0048454C45
:100297004C4F205348494E0D0A00444F49542053B0
:1002A70048494E0D0A0046696E6973680D0A005287
:1002B70065736574003F065B4F666D7D077F6F77DB
:0F02C7007C395E79715479FEFDFBF7EFDFBF7F65
:0C03A8000122000132000133000121009D
:10039600759850438921758DFDD28ED2AFD2A9D2E0
:0203A6008C22A7
:10002600C2001203967BFF7A02795712000ED2ACF9
:10003600E5336401600302017174342522F8E4F6A5
:10004600F533F522E53464737022F5087435250816
:10005600F8E624D0FF742D2508F8A6070508E5085C
:10006600B404E97BFF7A02799402014EE5346467B1
:100076006003020171F509F50AE53524D0F53EE580
:100086003624D0F53FE53724D0F540E53824D0F5C1
:1000960041E53E9002BC93F523E53F93F524E54008
:1000A60093F525E54193F5267BFF7A0279A11200A7
:1000B6000EE53EB52D0405098013E53E652E600B61
:1000C600E53E652F6005E53EB53002050AE53FB51C
:1000D6002E0405098013E53F652D600BE53F652F6E
:1000E6006005E53FB53002050AE540B52F04050970
:1000F6008013E540652D600BE540652E6005E54003
:10010600B53002050AE541B5300405098013E5411D
:10011600652D600BE541652E6005E541B52F0205AD
:100126000AE509B404279002C9E493F5279002BCB6
:10013600E493F5289002CCE493F5299002CAE4935F
:10014600F52A7BFF7A0279AD12000E801EE5099032
:1001560002BC93F5279002C6E493F528E50A9002BF
:10016600BC93F5299002C7E493F52A309003020068
:1001760036E4F50BF50C050CE50C7002050BB4D056
:10018600F5E50BB407F02090097BFF7A0279B612E9
:10019600000E3090FDE4F50BF50C050CE50C700235
:1001A600050BB4D0F5E50BB407F0E4F50874232588
:1001B60008F8E4F60508E508B408F27D08E4FF123D
:0501C6000352020036A7
:080003008F993099FDC299228A
:10000E0012037DFF600C120003740129F9E43AFA21
:03001E0080EE224F
:030023000202D600
:0B02D600C0E0C0D075D000C000C00721
:1002E100309838C298AF99E532701BBF0D05753251
:1002F10001802874342522F8A6070522E522B40AD4
:100301001A7522008015E532B40110EF640A600508
:0B031100752200800375330175320077
:09031C00D007D000D0D0D0E032AF
:10035200E4F580D2A2C2A2E5212F9002CE93F580CD
:10036200D2A3C2A374232521F8E6F580D2A2C2A2A9
:0A0372000521E521B50503E4F5219E
:01037C00225E
:03000B00020325C8
:10032500C0E0C083C082C0D075D000C000C005C089
:1003350007758CF8758A307D08E4FF120352D007E3
:0D034500D005D000D0D0D082D083D0E032DF
:030000000201CB2F
:0C01CB00787FE4F6D8FD75814202021234
:10037D00BB010689828A83E0225002E722BBFE027E
:09038D00E32289828A83E49322B1
:1001D700020026E493A3F8E493A34003F68001F218
:1001E70008DFF48029E493A3F85407240CC8C33329
:1001F700C4540F4420C8834004F456800146F6DFF8
:10020700E4800B01020408102040809003A8E47EDC
:10021700019360BCA3FF543F30E509541FFEE493EC
:10022700A360010ECF54C025E060A840B8E493A3B3
:10023700FAE493A3F8E493A3C8C582C8CAC583CADE
:10024700F0A3C8C582C8CAC583CADFE9DEE780BE96
:0103B4000048
:00000001FF
